S01D00002E2F44656275672F67726170686963646973706C61792E73313990
S315200000000248854600F0E3F8FEE7C04600C001201E
S31520000010B0B58CB000AF786010243A197B68100018
S31520000020190004231A0000F0EDF921007B181A7834
S315200000300F203B181A707B185A780E243B191A7019
S315200000407B189A780D257B191A707B18DA780C2183
S315200000507B181A707B181B781A003B191B78D31A49
S31520000060DA17991851407B191B781A003B181B7810
S31520000070D31AD8171A1842401F23FB180120914281
S3152000008001DC0022101C18701F23FB181B78002B84
S315200000900FD00E23FA180F23FB181100180000F0BA
S315200000A07BF80C23FA180D23FB181100180000F01A
S315200000B073F80F217B181A780D203B181B789A426B
S315200000C00DD93A187B181100180000F065F80C239A
S315200000D0FA180E23FB181100180000F05DF80D2306
S315200000E0FB181B781A000F23FB181B78D31ABB6149
S315200000F00C203B181B781A000E217B181B78D31A6C
S31520000100DA179B1853407B610023FB627B181B7810
S315200001107B627B181A783B181B789A4202D20123FD
S31520000120BB6202E001235B42BB620F23FB181B78F4
S315200001303B6225E01F23FB181B78002B06D03A6A6A
S315200001407B6A1100180000F0CAF805E07A6A3B6A5B
S315200001501100180000F0C3F8FA6A7B69D318FB6215
S31520000160FB6A5B00BA699A4207DC7A6ABB6AD318D3
S315200001707B62FA6ABB69D31AFB623B6A01333B6234
S315200001800D23FB181B781A003B6A9342D2DDC0462A
S315200001901800BD460CB0B0BD80B584B000AF786005
S315200001A039600F217B187A6812781A700E203B1856
S315200001B03A6812781A707B683A1812781A703B6877
S315200001C07A1812781A70C046BD4604B080BD80B534
S315200001D082B000AF00F078F800F07BF800F07CF8F1
S315200001E000237B600EE07B689A00094BD318180029
S315200001F0FFF70EFFFA235B00180000F042F87B6839
S3152000020001337B607B680B2BEDD900F065F8E7E7BF
S315200002101804002080B500AF084B00221A60084B56
S3152000022029221A60074B00221A60044B05221A6005
S31520000230C046054B1B78C046BD4680BD10E000E099
S3152000024014E000E018E000E012E000E080B584B0A1
S3152000025000AF78600023FB600AE0FFF7DBFFFFF7C3
S31520000260D9FFFFF7D7FFFFF7D5FFFB680133FB6008
S31520000270FA687B689A42F0D9C046C046BD4604B0AB
S3152000028080BD80B584B000AF78607B68FA21180005
S3152000029000F02CF803007B607B6801337B60002331
S315200002A0FB6007E0FA239B001800FFF7CFFFFB68EF
S315200002B00133FB60FA687B689A42F3D3C046C04696
S315200002C0BD4604B080BDC04680B500AFC046BD4621
S315200002D080BDF0DF7047C046F1DF7047C046F2DFD1
S315200002E07047C046F3DF7047C0460000002243082F
S315200002F08B4274D303098B425FD3030A8B4244D3C8
S31520000300030B8B4228D3030C8B420DD3FF22090209
S3152000031012BA030C8B4202D31212090265D0030BC8
S315200003208B4219D300E0090AC30B8B4201D3CB03BE
S31520000330C01A5241830B8B4201D38B03C01A524100
S31520000340430B8B4201D34B03C01A5241030B8B4202
S3152000035001D30B03C01A5241C30A8B4201D3CB02ED
S31520000360C01A5241830A8B4201D38B02C01A5241D2
S31520000370430A8B4201D34B02C01A5241030A8B42D5
S3152000038001D30B02C01A5241CDD2C3098B4201D3ED
S31520000390CB01C01A524183098B4201D38B01C01A6B
S315200003A0524143098B4201D34B01C01A52410309E2
S315200003B08B4201D30B01C01A5241C3088B4201D391
S315200003C0CB00C01A524183088B4201D38B00C01A3E
S315200003D0524143088B4201D34B00C01A5241411A65
S315200003E000D20146524110467047FFE701B5002072
S315200003F000F006F802BDC0460029F7D076E7704720
S315200004007047C046002310B59A4200D110BDCC5C7F
S31520000410C4540133F8E70000280A640A280A641441
S31520000420280A641E280A6428280A6432280A643C9A
S31520000430280A5A3C280A503C280A463C280A3C3CB2
S30D20000440280A323C280A283C58
S70520000000DA
