S015000044656275672F6D6F7665706F6E672E7331395E
S315200000000248854600F0B1F9FEE7C04600C001204F
S31520000010F0DF7047C046F1DF7047C046F2DF704719
S31520000020C046F3DF7047C04680B500AF074B084A8D
S315200000301A60084B00221A70074BAA221A80074B17
S3152000004000221A70C046BD4680BDC046000C024044
S3152000005055550055050C02400E0C0240150C024069
S3152000006080B582B000AF0200FB1D1A70FB1D1B7805
S31520000070024AD35C1800BD4602B080BDDC050020D4
S3152000008080B582B000AF0200FB1D1A70FB1D1B78E5
S31520000090042B14D017DC032B0DD014DC012B02D03B
S315200000A0022B04D00FE00C4B10221A700FE00A4BE3
S315200000B020221A700BE0084B40221A7007E0064BEC
S315200000C080221A7003E0044B00221A70C046C046F4
S315200000D0BD4602B080BDC046150C024080B582B038
S315200000E000AF124AFB1D12781A70FB1D1B780822DE
S315200000F0134001D0042315E0FB1D1B780422134076
S3152000010001D003230EE0FB1D1B780222134001D0F1
S31520000110022307E0FB1D1B780122134001D0012397
S3152000012000E000231800BD4602B080BD110C02403D
S3152000013090B583B000AFFB1DFF221A70BB1D0122B4
S315200001401A7021E0BB1D1B781800FFF799FF7C1D54
S31520000150FFF7C4FF030023707B1D1B78002B0ED0F6
S315200001600020FFF78DFFBB1D1B78013B9A007B1DEE
S315200001701B78013BD218FB1D08498A5C1A70BB1DEF
S315200001801A78BB1D01321A70BB1D1B78042BD9D9D6
S31520000190FB1D1B781800BD4603B090BDCC05002082
S315200001A080B584B000AF78607B681B681A680B2323
S315200001B0FB181A700023FB601BE07B68DA687B68FB
S315200001C01968FB6804335B00CB1804331B78D018FE
S315200001D07B681A697B681968FB6804335B00CB1857
S315200001E005331B78D3181900FFF718FFFB68013376
S315200001F0FB600B23FB181B78FA689A42DDDBC046AE
S31520000200C046BD4604B080BD80B584B000AF7860DE
S315200002107B681B681B68BB600023FB601BE07B6858
S31520000220DA687B681968FB6804335B00CB180433F3
S315200002301B78D0187B681A697B681968FB680433B9
S315200002405B00CB1805331B78D3181900FFF7E9FE9E
S31520000250FB680133FB60FA68BB689A42DFDBC04665
S31520000260C046BD4604B080BD80B584B000AF78607E
S315200002707B681800FFF7C8FF7B68DB689AB27B684B
S315200002805B689BB2D3189AB20E217B181A807B68C2
S315200002901B699AB27B689B689BB2D3189AB20C23CF
S315200002A0FB181A807B1800229B5E002B07DC7B68DC
S315200002B05B685A427B685A607B187C221A800E2122
S315200002C07B1800229A5E7B681B685B68D318802B9C
S315200002D007DD7B685B685A427B685A607B187C2204
S315200002E01A800C217B1800229B5E002B07DC7B6882
S315200002F09B685A427B689A607B183C221A800C21A4
S315200003007B1800229A5E7B681B689B68D318402B5B
S3152000031007DD7B689B685A427B689A607B183C2283
S315200003201A800E23FB1800229A5E7B68DA600C2363
S31520000330FB1800229A5E7B681A617B681800FFF71B
S315200003402FFFC046BD4604B080BD80B584B000AF47
S31520000350F860B9607A60FB68BA685A60FB687A68A8
S315200003609A60C046BD4604B080BD90B583B000AF4C
S31520000370214B3B60FFF758FEFFF74AFEFFF74BFE87
S315200003803B68DB693A68100098470A2000F06FF84E
S31520000390FC1DFFF7CDFE03002370FB1D1B78082BE9
S315200003A0EED89A00154BD3181B689F463B681B6AEC
S315200003B038000022032198471DE03B681B6A032270
S315200003C0514238000022984715E03B681B6A3800E6
S315200003D00022002198470EE03B681B6A0322524206
S315200003E038000021984706E03B681B6A3800032244
S315200003F000219847C046C3E72C060020500600205F
S3152000040080B500AF084B00221A60084B29221A60DB
S31520000410074B00221A60044B05221A60C046054B82
S315200004201B78C046BD4680BD10E000E014E000E029
S3152000043018E000E012E000E080B584B000AF7860FC
S315200004400023FB600AE0FFF7DBFFFFF7D9FFFFF78A
S31520000450D7FFFFF7D5FFFB680133FB60FA687B689F
S315200004609A42F0D9C046C046BD4604B080BD80B58C
S3152000047084B000AF78607B68FA21180000F01AF883
S3152000048003007B607B6801337B600023FB6007E011
S31520000490FA239B001800FFF7CFFFFB680133FB60B0
S315200004A0FA687B689A42F3D3C046C046BD4604B07C
S315200004B080BDC046002243088B4274D303098B4279
S315200004C05FD3030A8B4244D3030B8B4228D3030CFE
S315200004D08B420DD3FF22090212BA030C8B4202D3A0
S315200004E01212090265D0030B8B4219D300E0090AC8
S315200004F0C30B8B4201D3CB03C01A5241830B8B42D1
S3152000050001D38B03C01A5241430B8B4201D34B03B9
S31520000510C01A5241030B8B4201D30B03C01A52411E
S31520000520C30A8B4201D3CB02C01A5241830A8B42A3
S3152000053001D38B02C01A5241430A8B4201D34B028C
S31520000540C01A5241030A8B4201D30B02C01A5241F0
S31520000550CDD2C3098B4201D3CB01C01A52418309A4
S315200005608B4201D38B01C01A524143098B4201D3DE
S315200005704B01C01A524103098B4201D30B01C01A09
S315200005805241C3088B4201D3CB00C01A5241830883
S315200005908B4201D38B00C01A524143088B4201D3B0
S315200005A04B00C01A5241411A00D201465241104610
S315200005B07047FFE701B5002000F006F802BDC046EF
S315200005C00029F7D076E770477047C0460102030A34
S315200005D00405060B0708090C0E000F0D3F065B4F9E
S315200005E0666D7D077F67777C395E79710C00000028
S315200005F004000000040000000102010302010202BF
S315200006000203020403010302030303040402040396
S3152000061000000000000000000000000000000000B4
S31520000620000000000000000000000000EC05002093
S315200006300300000003000000030000000300000088
S31520000640A101002009020020690200204B0300209E
S315200006508003002080030020D80300208003002090
S31520000660BA030020CA030020AC0300208003002028
S30920000670E803002055
S70520000000DA
