S015000044656275672F6D6F7665706F6E672E7331395E
S315200000000248854600F0FCFAFEE7C04600C0012003
S3152000001080B500AF084B00221A60084B29221A60CF
S31520000020074B00221A60044B05221A60C046054B76
S315200000301B78C046BD4680BD10E000E014E000E01D
S3152000004018E000E012E000E080B584B000AF7860F0
S315200000500023FB600AE0FFF7DBFFFFF7D9FFFFF77E
S31520000060D7FFFFF7D5FFFB680133FB60FA687B6893
S315200000709A42F0D9C046C046BD4604B080BD80B580
S3152000008084B000AF78607B68FA21180000F0E0FAAF
S3152000009003007B607B6801337B600023FB6007E005
S315200000A0FA239B001800FFF7CFFFFB680133FB60A4
S315200000B0FA687B689A42F3D3C046C046BD4604B070
S315200000C080BDC04680B584B000AF786039600F210E
S315200000D07B187A6812781A700E203B183A681278C4
S315200000E01A707B683A1812781A703B687A18127858
S315200000F01A70C046BD4604B080BDB0B58CB000AF06
S31520000100786010243A197B681000190004231A001D
S3152000011000F02AFB21007B181A780F203B181A7052
S315200001207B185A780E243B191A707B189A780D255D
S315200001307B191A707B18DA780C217B181A703B18F9
S315200001401B78002B1BD03B181B78802B17D87B19CC
S315200001501B78002B13D07B191B78802B0FD83B19CB
S315200001601B78002B0BD03B191B78402B07D87B180C
S315200001701B78002B03D07B181B78402B01D900233A
S31520000180A1E00C23FB181B781A000E23FB181B7802
S31520000190D31ADA17991851400D23FB181B781A0029
S315200001A00F23FB181B78D31AD8171A1842401F237F
S315200001B0FB180120914201DC0022101C18701F231D
S315200001C0FB181B78002B0FD00E23FA180F23FB18D1
S315200001D011001800FFF776FF0C23FA180D23FB18E1
S315200001E011001800FFF76EFF0F217B181A780D20DB
S315200001F03B181B789A420DD93A187B181100180023
S31520000200FFF760FF0C23FA180E23FB1811001800C5
S31520000210FFF758FF0D23FB181B781A000F23FB1836
S315200002201B78D31ABB610C203B181B781A000E21B1
S315200002307B181B78D31ADA179B1853407B6100234F
S31520000240FB627B181B787B627B181A783B181B781D
S315200002509A4202D20123BB6202E001235B42BB62C7
S315200002600F23FB181B783B6225E01F23FB181B7806
S31520000270002B06D03A6A7B6A1100180000F0E1F9DB
S3152000028005E07A6A3B6A1100180000F0DAF9FA6A8A
S315200002907B69D318FB62FB6A5B00BA699A4207DC6A
S315200002A07A6ABB6AD3187B62FA6ABB69D31AFB6285
S315200002B03B6A01333B620D23FB181B781A003B6A0D
S315200002C09342D2DD01231800BD460CB0B0BDF0B577
S315200002D08BB000AF78601C243A197B681000190097
S315200002E004231A0000F040FA23203B1821007A1834
S315200002F012781A7022243B197A1852781A702125FE
S315200003007B197A1892781A702026BB197A18D27817
S315200003101A700C217B183A1812781A707B183A1921
S3152000032012785A703A187B1912781B78D318DAB2D9
S315200003307B189A707B183A191278DA707B183A185B
S3152000034012781A717B183A1912785A717B183A1852
S3152000035012789A713A19BB1912781B78D318DAB227
S315200003607B18DA713A187B1912781B78D318DAB20F
S315200003707B181A727B183A1912785A723A187B1916
S3152000038012781B78D318DAB27B189A723A19BB19ED
S3152000039012781B78D318DAB27B18DA723A187B19DE
S315200003A012781B78D318DAB27B181A733A19BB194C
S315200003B012781B78D318DAB27B185A737B183A183E
S315200003C012789A733A19BB1912781B78D318DAB2B5
S315200003D07B18DA7300237B620AE00C23FA187B6A07
S315200003E09B00D3181800FFF788FE7B6A01337B62D7
S315200003F07B6A032BF1D9C046C046BD460BB0F0BD83
S31520000400F0B589B000AF786014217B187A6811CADC
S3152000041011C31F23FB187A1812781A701E23FB1893
S315200004207A1852781A707B185A680C23FB1803CA5C
S3152000043003C31D203B180C243A1912781A701C2568
S315200004407B193A1952781A7008217B181F26BA1977
S3152000045012781A707B181E22BA1812785A707B18D6
S315200004603A1812789A707B187A191278DA707B18F3
S315200004701800FFF742FEBB193A1912781A701E228D
S31520000480BB183A1952781A703B195B68002B05D0B5
S315200004903B195A683B1903CA03C3CAE7C046BD467F
S315200004A009B0F0BD80B584B000AF78600023FB6052
S315200004B014E07A68FB6804335B00D31804331B7896
S315200004C018007A68FB6804335B00D31805331B7861
S315200004D0190000F0B6F8FB680133FB607B681B68E7
S315200004E0FA689A42E5DBC046C046BD4604B080BDE8
S315200004F080B584B000AF78600023FB6014E07A6892
S31520000500FB6804335B00D31804331B7818007A6821
S31520000510FB6804335B00D31805331B78190000F001
S3152000052093F8FB680133FB607B681B68FA689A4284
S31520000530E5DBC046C046BD4604B080BD80B584B06C
S3152000054000AF78607B6800229A647B680022DA64B8
S315200005507B6801221A647B6801221A647B689A6C84
S315200005607B689A647B68DB6C5A1C7B68DA647B68E0
S315200005701800FFF7BDFF0023FB602AE07A68FB68BE
S3152000058004335B00D31804331A787B689B6CDBB288
S31520000590D318D9B27A68FB6804335B00D3180433C6
S315200005A00A1C1A707A68FB6804335B00D31805337B
S315200005B01A787B68DB6CDBB2D318D9B27A68FB6811
S315200005C004335B00D31805330A1C1A70FB68013309
S315200005D0FB607B681B68FA689A42CFDB7B68180051
S315200005E0FFF760FFC046BD4604B080BD80B584B02D
S315200005F000AFF860B9607A60C046BD4604B080BDE1
S3152000060080B500AF00F012F800F015F800F016F8EB
S31520000610054B1800FFF746FF034B1800FFF78EFF28
S315200006206420FFF72CFDF7E7C007002080B500AF58
S31520000630C046BD4680BDF0DF7047C046F1DF70473B
S31520000640C046F2DF7047C046F3DF7047C046000061
S31520000650002243088B4274D303098B425FD3030ADB
S315200006608B4244D3030B8B4228D3030C8B420DD3EE
S31520000670FF22090212BA030C8B4202D3121209027C
S3152000068065D0030B8B4219D300E0090AC30B8B42BA
S3152000069001D3CB03C01A5241830B8B4201D38B0368
S315200006A0C01A5241430B8B4201D34B03C01A52410D
S315200006B0030B8B4201D30B03C01A5241C30A8B4250
S315200006C001D3CB02C01A5241830A8B4201D38B023B
S315200006D0C01A5241430A8B4201D34B02C01A5241DF
S315200006E0030A8B4201D30B02C01A5241CDD2C30951
S315200006F08B4201D3CB01C01A524183098B4201D3CD
S315200007008B01C01A524143098B4201D34B01C01AB7
S31520000710524103098B4201D30B01C01A5241C3082F
S315200007208B4201D3CB00C01A524183088B4201D39E
S315200007308B00C01A524143088B4201D34B00C01A8A
S315200007405241411A00D20146524110467047FFE7F6
S3152000075001B5002000F006F802BDC0460029F7D0FA
S3152000076076E770477047C046002310B59A4200D1FD
S3152000077010BDCC5CC4540133F8E70000280A640A93
S31520000780280A6414280A641E280A6428280A64325F
S31520000790280A643C280A5A3C280A503C280A463C27
S315200007A0280A3C3C280A323C280A283C0A0A140A11
S315200007B019190A14281E46143C230A0A460A050556
S315200007C00C000000040000000400000001020103E8
S315200007D002010202020302040301030203030304CB
S315200007E004020403000000000000000000000000D6
S315200007F000000000000000000000000000000000D3
S70520000000DA
